:020000040800F2
:1000000030B80020ED02000877310008392C0008D4
:100010007531000837060008C938000800000000E4
:100020000000000000000000000000002D02000899
:10003000B5070008000000008902000841330008ED
:100040000703000807030008070300080703000868
:100050000703000807030008070300080703000858
:100060000703000807030008070300088D060008BF
:1000700099060008A5060008B1060008BD0600089C
:10008000C906000807030008070300080703000863
:1000900039060008070300080703000841080008A4
:1000A0000703000807030008070300080703000808
:1000B00015340008070300080703000807030008B9
:1000C00007030008070300080703000807030008E8
:1000D00007030008693800088138000899380008CB
:1000E00007030008070300080703000807030008C8
:1000F000070300080703000807030008D5060008E7
:1001000007030008070300080703000807030008A7
:10011000F934000811350008070300080703000838
:1001200007030008E1060008ED06000807030008C1
:100130000703000807030008070300080703000877
:100140004506000807030008070300080703000826
:1001500007030008F906000805070008B138000881
:100160000703000807030008070300080703000847
:100170000703000807030008070300080000000049
:10018000070300080703000800F002F800F03EF83B
:100190000AA090E8000C82448344AAF10107DA45E2
:1001A00001D100F033F8AFF2090EBAE80F0013F0F6
:1001B000010F18BFFB1A43F00103184730860000F7
:1001C00050860000103A24BF78C878C1FAD8520788
:1001D00024BF30C830C144BF04680C6070470000C1
:1001E0000023002400250026103A28BF78C1FBD840
:1001F000520728BF30C148BF0B6070471FB506F0DB
:1002000091FA00F0CDF91FBD10B510BD00F0DAF97C
:100210001146FFF7F3FF04F0B3FD00F0F8F903B463
:10022000FFF7F2FF03BC00F0FFF900002C4B196848
:100230000868B0E8F04F80F30988BFF36F8F4FF084
:10024000000080F311887047000000000848006833
:10025000006880F308884FF0000080F3148862B6CD
:1002600061B6BFF34F8FBFF36F8F00DF00BF00BFDA
:1002700008ED00E0DFF80C00016841F47001016056
:10028000704700BF88ED00E0EFF30980BFF36F8F88
:10029000134B1A681EF0100F08BF20ED108A20E9DA
:1002A000F04F106009B44FF0500080F31188BFF395
:1002B0004F8FBFF36F8F06F00FF84FF0000080F301
:1002C000118809BC19680868B0E8F04F1EF0100FDB
:1002D00008BFB0EC108A80F30988BFF36F8F7047B6
:1002E0000C000020EFF305807047000009488047AC
:1002F00009480047FEE7FEE7FEE7FEE7FEE7FEE708
:10030000FEE7FEE7FEE7FEE704480549054A064B1F
:1003100070470000053400088901000830B2002051
:1003200030B8002030B4002030B4002053EA020C72
:1003300000F069802DE9F04B4FF00006002B1FBF45
:10034000B3FA83F503FA05F424FA05F65E4012BF0A
:100350001643B2FA82F502FA05F4C5F120051EBF74
:1003600022FA05FC44EA0C04203556EA044C4FEA14
:10037000144418BF641C4FF000084FF0000990426D
:1003800071EB030C39D3002919BFB1FA81F701FAD7
:1003900007F6B0FA80F700FA07F6C7F120071EBF8C
:1003A00020FA07FC46EA0C062037B6FBF4FCA7EB64
:1003B0000507103F07F01F0BCBF120060CFA0BFBD3
:1003C0002CFA06F644BFB3460026202FA4BF5E4693
:1003D0004FF0000B5BEA060C08BF4FF0010B19EB66
:1003E0000B09ABFB027C48EB0608C01B06FB02CCEA
:1003F0000BFB03CC71EB0C01C1E70B4602464146F7
:100400004846BDE8F08B13B54FF000004FF00001F7
:10041000AFF30080BDE81C407047032A40F23080F3
:1004200010F0030C00F0158011F8013BBCF1020F35
:10043000624498BF11F801CB00F8013B38BF11F8B6
:10044000013BA2F1040298BF00F801CB38BF00F8CD
:10045000013B11F0030300F02580083AC0F008804A
:1004600051F8043B083A51F804CBA0E80810F5E72E
:10047000121D5CBF51F8043B40F8043BAFF3008011
:10048000D20724BF11F8013B11F801CB48BF11F886
:10049000012B24BF00F8013B00F801CB48BF00F856
:1004A000012B704710B5203AC0F00B80B1E818500E
:1004B000203AA0E81850B1E81850A0E81850BFF44E
:1004C000F5AF5FEA027C24BFB1E81850A0E81850ED
:1004D00044BF18C918C0BDE810405FEA827C24BF41
:1004E00051F8043B40F8043B08BF7047D20728BFCF
:1004F00031F8023B48BF11F8012B28BF20F8023B1E
:1005000048BF00F8012B70474FF000020429C0F0EB
:10051000128010F0030C00F01B80CCF1040CBCF135
:10052000020F18BF00F8012BA8BF20F8022BA1EB87
:100530000C0100F00DB85FEAC17C24BF00F8012B6C
:1005400000F8012B48BF00F8012B70474FF0000264
:1005500000B5134694469646203922BFA0E80C50B9
:10056000A0E80C50B1F12001BFF4F7AF090728BF94
:10057000A0E80C5048BF0CC05DF804EB890028BF10
:1005800040F8042B08BF704748BF20F8022B11F039
:10059000804F18BF00F8012B7047704770477047B5
:1005A00070B5064C7C44064D7D4403E02068204431
:1005B0008047241DAC42F9D170BD00006482000068
:1005C00064820000754600F02BF8AE4605006946CF
:1005D000534620F00700854618B020B5FFF794FE7B
:1005E000BDE820404FF000064FF000074FF0000834
:1005F0004FF0000B21F00701AC46ACE8C009ACE8B5
:10060000C009ACE8C009ACE8C0098D46704710B518
:100610000446AFF300802046BDE81040FFF7FFBD61
:1006200000487047D0B1002001491820ABBEFEE75A
:10063000260002007047FEE7014800F022BA0000E1
:10064000F0020020014800F01CBA0000180300204E
:1006500010B5002201234A61C1E906230A604A60FD
:100660008A600446CA600E200A61C1E9083020464B
:1006700000F006F90221204600F0EFF8204600F0D5
:1006800033FC002800D0FEE710BD0000014800F058
:10069000B9BC00006C060020014800F0B3BC0000AB
:1006A0004C080020014800F0ADBC0000AC05002063
:1006B000014800F0A7BC0000AC080020014800F091
:1006C000A1BC00000C060020014800F09BBC00000B
:1006D000EC070020014800F095BC0000CC0600208B
:1006E000014800F08FBC00000C090020014800F018
:1006F00089BC00002C070020014800F083BC0000EA
:100700006C090020014800F07DBC00008C0700202F
:1007100001681823CAB2103AB2FBF3F2054B6FF32B
:100720000901032A9B5CC36500D9091D8165084640
:1007300070470000B687000810B5014600208B699D
:100740008A6A4FF0C07453B1B3F5005F15D072B12F
:10075000012A0CD0022A0AD0032A09D104E01AB1D6
:10076000012A06D0022A03D1C96AC90100D5012095
:1007700010BDC96AA142FAD010BD002AF7D0012AE3
:10078000F2D0022AF3D0032AF3D010BD30B50468AA
:10079000256825F480252560046863608368402B04
:1007A000036803D099600068C26030BD9A60006839
:1007B000C16030BD7047000010B51648FFF748FF14
:1007C0001548FFF745FF80221449154802F0B4FE92
:1007D000124980228031134802F0AEFE8022124975
:1007E000124802F0A9FE104980228031104802F020
:1007F000A3FE80220F49104802F09EFE0D49802280
:1008000080310E4802F098FE04F086FA002800D0ED
:10081000FEE710BDF002002018030020D0AB00203E
:100820008C040020D4040020D0AC00201C05002043
:10083000FC030020D0AD002044040020640500200B
:1008400010B54FF4807000F03BFDBDE810404FF450
:10085000007000F035BD72B6FEE790F82020012A46
:1008600007D0022A05D0416A41F48021416201206B
:100870007047006842690A434261002070470000E7
:1008800010B590F82020012A07D0022A05D0416A2D
:1008900041F480214162012010BD3B48D0F8002284
:1008A00042F00102C0F80022D0F8002222F47C526B
:1008B000C0F80022D0F800224B6A42EA0322C0F8B6
:1008C00000220A7D02F01F0301229A40D0F81C3258
:1008D0009343C0F81C32CB69B3B9D0F80C329343C0
:1008E000C0F80C328C894B6864F31F434C6900EBF1
:1008F000C404C4F840320C890B6864F31F434C698C
:1009000000EBC404C4F84432CB69012B16D1D0F8F3
:100910000C321343C0F80C320C884B6864F31F434D
:100920004C6900EBC404C4F840320C89CB6864F312
:100930001F434C6900EBC404C4F844328B69002B9C
:10094000D0F804320ED01343C0F804320B69002BE8
:10095000D0F8143208D01343C0F81432096A0129C0
:1009600004D008E09343EFE79343F5E7D0F81C1277
:100970001143C0F81C12D0F8001221F00101C0F898
:100980000012002010BD000000640040704770B5E8
:1009900090F82040012C05D0022C03D0416A41F48C
:1009A000802128E0046809B32469A40720D04FF40B
:1009B000D874056804EB01142D5915F004059560F1
:1009C00005682D591AD0ED08556005682C5904F0BA
:1009D0000204D4604FF4DA74056804EB01142E5954
:1009E00006F00F06082E0CD308250DE0E468DCE7BE
:1009F000416A41F400114162012070BD6D0D156026
:100A0000E3E72D5905F00F05156105682D59C5F36C
:100A10000725956105682C59240C54614FF4DC724C
:100A2000046802EB0112A4581C700468A458240A3C
:100A30005C700468A458240C9C700468A258120EC0
:100A4000DA704FF4DE72046802EB0112A4581C71D4
:100A50000468A458240A5C710468A458240C9C718E
:100A60000468A258120EDA71006829B1016941F0D8
:100A700020010161002070BDC16841F02001C1600A
:100A8000F8E72DE9F05F0546006800244669D0F8D4
:100A900004908768D0F80CB0D0F810A0D0F8188077
:100AA000F10748D0F90714D001218160B80703D5B8
:100AB000284600F046FA0CE0780702D54FF40064AF
:100AC00007E0380702D54FF4805402E0284600F0D2
:100AD00037FAF80516D529684FF480708860B80594
:100AE00003D5284600F02FFA0CE0780502D544F42F
:100AF000005407E0380502D544F4804402E028465B
:100B000000F020FAF80316D529684FF48030886089
:100B1000B80303D5284600F018FA0CE0780302D594
:100B200044F4004407E0380302D544F4803402E082
:100B3000284600F009FA300707D55FEACB6004D5F4
:100B40002968102044F40074C86070074FF008074B
:100B500007D55FEA0B7004D52868C760284600F007
:100B60009DF9B00706D52868C068800702D02846DE
:100B700000F096F9700607D55FEACA6004D52968C7
:100B8000102044F480640861B00607D55FEA0A705B
:100B900004D528680761284600F0A2F9F00606D5BA
:100BA00028680069800702D0284600F09AF9B0034F
:100BB00008D55FEAC96005D5296810204860284635
:100BC00000F090F9F00307D55FEA097004D52868B2
:100BD0004760284600F0BAF9300446D55FEA49700C
:100BE00040D5F00504D55FEAC87001D044F0010497
:100BF000B00504D55FEA887001D544F002047005A1
:100C000004D55FEA487001D544F00404300529D5C5
:100C100018F0700F26D008F07000402815D006DCC0
:100C2000102809D020280AD0302816D10AE05028F0
:100C30000ED0602811D10EE044F008040DE044F01D
:100C400010040AE044F0200407E044F0400404E00B
:100C500044F0800401E044F480742868816921F044
:100C600070018161296804204860002C05D0686A01
:100C7000204368622846FFF789FEBDE8F09F70B503
:100C8000040003D094F8200010B104E0012070BDEE
:100C9000204600F081F82068016841F00101016000
:100CA00000F018FC0546052604E000F013FC401B8C
:100CB0000A2811D820684068C007F6D0206801686B
:100CC00021F00201016000F005FC05460BE000F098
:100CD00001FC401B0A2806D9606A40F400306062BB
:100CE00084F82060D2E7206840688007EFD4207E37
:100CF0000128206801683DD021F080010160607EFC
:100D000001282068016838D021F040010160A07EF0
:100D100001282068016833D021F020010160E07EC5
:100D20000128206801682ED041F010010160207F69
:100D300001282068016829D021F008010160607F46
:100D400001282068016824D021F004010160D4E961
:100D500002010843D4E90412114308436168491EA3
:100D600008432168C86100206062012084F82000E7
:100D7000002070BD41F08001C0E741F04001C5E7AF
:100D800041F02001CAE721F01001CFE741F008014E
:100D9000D4E741F00401D9E72DE9F04387B00446D8
:100DA00014216846FFF7D2FB384B3948DFF8D8806A
:100DB0001968D4F800C0364A022503260927DFF84F
:100DC000D49010300024491CC44524D11960012955
:100DD00007D1016841F000710160006800F0007007
:100DE0000590106840F002001060106802AB00F03F
:100DF000020005904FF44070CDE9000583E8D00073
:100E00006946484600F068FA00220521142000F0E7
:100E10002DFC142032E0DFF88080C44530D1D0F8BA
:100E200000C04CF0806CC0F800C0D0F800C00129B0
:100E30000CF0806CCDF814C0196007D1016841F046
:100E400000710160006800F000700590106840F0CB
:100E500002001060106802AB00F0020005906020F4
:100E6000CDE9000583E8D0006946484600F034FA31
:100E700000220521402000F0F9FB402000F0E8FBB3
:100E800007B0BDE8F08300000064004008000020C7
:100E90003038024000040240006800407047000003
:100EA00070B50C4B04461E46A3F11C020021FFF74F
:100EB0006EFD084D08481C3D844203D13146286828
:100EC000AFF300800548844203D131462868AFF370
:100ED000008070BDC8AB0020F00200201803002085
:100EE000704770477047000070B5044690F82000C6
:100EF000012804D0606A40F40020606218E00220FB
:100F000084F820002068016821F00101016000F0F0
:100F1000E1FA05460EE000BF00F0DCFA401B0A28AB
:100F200008D9606A40F400306062052084F820002F
:100F3000012070BD20684068C007EDD1606270BDBF
:100F400070477047704770477047704770472DE98A
:100F5000F0410446876D00F0BDFA064694F835006E
:100F60000025022806D08020606584F834500120D6
:100F7000BDE8F0812068016821F016010160206859
:100F8000416921F080014161206C08B9A06C20B159
:100F90002068016821F0080101602068016821F0E3
:100FA000010101600CE000F095FA801B052807D9CB
:100FB00020206065032084F8350084F83450D7E79A
:100FC00020680068C007EED194F85C103F2088408C
:100FD000B860012084F8350084F834500020C7E759
:100FE00090F83510022903D0802141650120704717
:100FF000052180F835100068016821F001010160C9
:10100000002070472DE9F84304464FF00009CDF861
:10101000009063484FF41651A56D0068B0FBF1F7DE
:101020002E6894F85C10082000FA01F131420FD0CC
:1010300021680A6852070BD50A6822F004020A6088
:1010400094F85C108840A860606D40F00100606515
:1010500094F85C104FF0010808FA01F0304208D013
:1010600021684969090604D5A860606D40F0020056
:10107000606594F85C1004208840304208D02168F4
:101080000968890704D5A860606D40F004006065B8
:1010900094F85C1010208840304218D0216809680C
:1010A000090714D5A86020680168490304D50068C1
:1010B000000308D5A16C07E00168C90503D40168E5
:1010C00021F008010160216C09B12046884794F89D
:1010D0005C1020208840304231D021680968C90660
:1010E0002DD5A86094F8350005282068016806D041
:1010F000490347D5006800031DD4616C1CE021F052
:10110000160101602068416921F080014161206C75
:1011100008B9A06C20B12068016821F008010160C5
:1011200094F85C103F208840A86084F8358084F8EB
:101130003490216D1FE0E16B09B120468847606D56
:1011400000282BD0606DC00714D0052084F835002E
:101150002068016821F0010101600098401C0090A6
:10116000B84203D820680068C007F6D184F83580FB
:1011700084F83490E16C002910D001B02046BDE81D
:10118000F04308470168C905D5D4016821F0100172
:10119000016084F8358084F83490CCE7BDE8F883AA
:1011A000980000202DE9F041044600F093F906462E
:1011B0005CB1022084F83500002584F834502068A2
:1011C000016821F0010101600DE00120BDE8F0811E
:1011D00000F080F9801B052805D9202060650320D8
:1011E00084F83500F2E720680068C007F0D1226873
:1011F000116820480140D4E901031843D4E90336BB
:101200003343184363691843A3691843E3691843D8
:10121000236A18430843616A042903D1D4E90B13F4
:1012200019430843106020684069666A20F007018E
:1012300030460E43012704280CD1A06A0643E06A19
:1012400040B12046FFF778FA20B14020606584F86D
:101250003570BAE7206846612046FFF759FA94F8DE
:101260005C203F2191408160656584F835700020E5
:10127000ACE700003F8010F070B5044690F83400F1
:10128000002501280CD0012084F8340094F8356042
:101290000020012E06D084F834000225284670BDB7
:1012A000022070BD022684F8356060652046FFF795
:1012B0006DFA2068016841F001010160EEE77047B6
:1012C000044910B50A68024202D00860FFF7F7FF30
:1012D00010BD0000143C01402DE9F84FDFF8BCA11F
:1012E0000022012503264FF00F090AF1040BAAF191
:1012F000040E00BF0B6805FA02F42340A34270D12C
:101300000F7907F00307012F01D0022F16D187684C
:101310004FEA420806FA08FC27EA0C07D1F80CC08D
:101320000CFA08FC4CEA070CC0F808C04768A74351
:101330000C79C4F3001494403C4344600C79E443BA
:10134000A4070AD0C4684FEA420C06FA0CF7BC4363
:101350008F6807FA0CF72743C7600C7904F0030481
:10136000022C12D1D40800EB840CDCF82040570783
:10137000FF0E09FA07F824EA0804D1F8108008FAE9
:1013800007F848EA0408CCF8208004684FEA420CC9
:1013900006FA0CF7BC430F7907F0030707FA0CF7BE
:1013A000274307604C6814F4403F70D03C4C2768DA
:1013B00047F480472760246822F0030704F4804440
:1013C0000094384C07EB040CDCF8084897074FEA08
:1013D000177809FA08F7BC43334FB84202D1002707
:1013E00024E054E0314FB84201D101271EE0304FD4
:1013F000B84201D1022719E02E4FB84201D103278C
:1014000014E02D4FB84201D104270FE02B4FB84212
:1014100001D105270AE02A4FB84201D1062705E08D
:10142000284FB84201D1072700E0082707FA08F73C
:101430002743CCF80878DAF800405746D1F804C0C2
:101440009C435FEACC2C00D51C433C60DBF8004099
:101450005F46D1F804C09C435FEA8C2C00D51C4346
:101460003C60DEF800407746D1F804C09C435FEA58
:101470008C3C00D51C433C60084F083F3C68D1F8C9
:1014800004C09C435FEACC3C00D51C433C60521C2A
:10149000102AFFF42FAFBDE8F88F0000083C014090
:1014A0004438024000300140000002400004024085
:1014B00000080240000C02400010024000140240EC
:1014C00000180240001C02400AB181617047090403
:1014D000FBE7000001488068704700008C00002096
:1014E00070B5040011D021684CF6CC40086021682A
:1014F00045F255500860D4E9000141602168A068B8
:101500008860FFF7E7FF05460DE0012070BD00BFD2
:10151000FFF7E0FF401B312805D92068C06880072D
:1015200001D0032070BD2068C0688007F0D1216819
:101530004AF6AA200860002070BD000002488168B9
:1015400002781144816070478C0000200B4810B570
:10155000016841F400710160016841F4806101603B
:10156000016841F480710160032000F09FF80F20B2
:1015700000F006F800F050F8002010BD003C0240DA
:1015800030B50546204887B00024016841F00101CC
:101590000160006806A900F00100009001A800F0B9
:1015A00031F90498B0B100F04DF9400017494FF0FF
:1015B0008042B0FBF1F11648491E026040F2E7326A
:1015C000C0E90324C0E90114846100F054FE040062
:1015D00003D015E000F036F9E8E70D4800F07AFE98
:1015E00004000DD11C2000F033F8102D07D200228A
:1015F00029461C2000F03AF80648056000E0012466
:1016000007B0204630BD00004038024040420F0085
:10161000CC090020900000200C4882B0016841F401
:1016200080410160006800F4804000900748001F7E
:10163000016841F0805101600068002200F0805094
:1016400000900F21901E02B000F010B84438024004
:10165000002809DB00F01F020121914040098000B1
:1016600000F1E020C0F8001170470000F0B40E4B0C
:101670001B680C46C3F30223C3F10705042D00D9F0
:101680000425191D072901D2002300E0DB1E0126D5
:1016900006FA05F1491E214099409E40761E1640EB
:1016A0003143F0BC02F026B90CED00E0064900F031
:1016B000070208684FF6FF03184040EA0220034A79
:1016C00010430860704700000CED00E00000FA05D0
:1016D0002DE9F0470E46050065D0DFF81481D8F8F3
:1016E0000000F7B200F00700B04207D288F800709F
:1016F000D8F8000000F00700B04254D128683D4CF3
:10170000810712D5400703D5206840F4E0502060DF
:101710002878000703D5206840F4604020602068E6
:10172000A96820F0F000084320602878C0072DD079
:10173000304968680839012812D0022813D00328DC
:1017400011D00968890700292DDA216821F00301E9
:1017500001432160FFF7BEFE814641F2883A0EE068
:1017600009688903EFE709688901ECE7FFF7B2FE32
:10177000A0EB0901514502D90320BDE8F08720689C
:10178000696800F00C00B0EB810FEFD1D8F80010C1
:10179000404601F00701B14207D90770006800F028
:1017A0000700B04201D00120E7E72878400705D5BF
:1017B0002068E96820F4E05008432060287800079A
:1017C00006D52068296920F4604040EAC100206005
:1017D00000F058F82168084AC1F30311515CC84071
:1017E0000649086006480068FFF7CAFE0020C4E703
:1017F000003C024008380240BE87000898000020E4
:10180000900000200F2202600C4A136803F00303CB
:101810004360136803F0F0038360136803F4E0533C
:10182000C36012684FF4E05303EAD2020261044835
:10183000006800F0070008607047000008380240A8
:10184000003C02400448054900680968044AC1F3A5
:101850008221515CC840704798000020083802403F
:10186000CE8700080448054900680968044AC1F3A6
:101870004231515CC840704798000020083802404F
:10188000CE870008154810B5006810F00C02144807
:1018900013D01449042A0FD0082A0ED10F4C241F4C
:1018A0002268236802F03F025B0207D52068C0F37C
:1018B0008810A0FB010106E0084610BD2168C1F3B5
:1018C0008811A1FB00010023FEF730FD2168C1F360
:1018D0000141491C4900B0FBF1F010BD083802403D
:1018E0000024F40040787D012DE9F84F04006ED00B
:1018F0002078DFF84C93C007A9F104054AD009F11C
:1019000004000168C1F38101012908D00068C0F317
:10191000810002280AD1D9F80000400206D52868C3
:10192000800337D560680028E1D033E06068B0F507
:10193000803F10D0B0F5A02F286810D020F4803060
:101940002860286820F4802028606068A8B1FFF72C
:10195000C1FD06460DE0286840F48030F4E740F40D
:1019600080202860F7E700BFFFF7B4FD801B6428E4
:1019700073D828688003F7D50CE0FFF7ABFD064667
:1019800005E000BFFFF7A6FD801B6428F0D828689B
:101990008003F7D42078DFF8AC8280074FF0000A8C
:1019A0003ED5A748001D016811F00C0F08D0006853
:1019B000C0F3810002280BD1D9F80000400207D4FF
:1019C0002868800716D5E068012800D112E033E1CD
:1019D000E068B8B10120C8F80000FFF77BFD0646BB
:1019E00005E000BFFFF776FD801B0228C0D82868FD
:1019F0008007F7D52868216920F0F80040EAC10087
:101A000028600DE0C8F800A0FFF764FD064604E07A
:101A1000FFF760FD801B02281FD828688007F7D4D5
:101A20002078000722D5864F87486169703771B1E9
:101A300001210160FFF74EFD064604E0FFF74AFD75
:101A4000801B022809D838688007F7D50EE0C0F857
:101A500000A0FFF73FFD064605E082E0FFF73AFDF4
:101A6000801B02287DD838688007F7D4207840078B
:101A700068D5DFF8CCB100270BF13C0BDBF8000098
:101A8000C0000BD4DBF8001041F08051CBF80010FF
:101A9000DBF80000012700F0805000906B4E3068AA
:101AA000C00510D4306840F480703060FFF712FD3C
:101AB000009005E0FFF70EFD0099401A022850D86B
:101AC0003068C005F6D55E4EA0686C3601280FD090
:101AD0000528306810D020F001003060306820F018
:101AE00004003060A068B8B1FFF7F4FC00900FE08C
:101AF000306840F00100F4E740F004003060F7E7A0
:101B0000FFF7E8FC0099411A41F28830814266D81B
:101B100030688007F4D50EE0FFF7DCFC009007E0AA
:101B2000FFF7D8FC0099411A41F28830814256D81B
:101B300030688007F4D42FB1DBF8001021F0805119
:101B4000CBF80010A069C8B33D49091D0968C1F36D
:101B5000810102294AD00228504607D0C8F8600007
:101B600000E03CE0FFF7B6FC04463BE04746C8F81F
:101B70006000FFF7AFFC064605E000BFFFF7AAFCD8
:101B8000801B02282BD828688001F7D4D4E90701EC
:101B90000843A16A2E4A490802EB0141626A41EA00
:101BA0008211084394F82C1040EA0161C9F8001032
:101BB00001203866FFF78EFC044606E03EE000BFD9
:101BC000FFF788FC001B022809D828688001F7D598
:101BD00034E000BFFFF77EFC001B022802D903207F
:101BE000BDE8F88F28688001F4D427E00128F7D0F9
:101BF000D9F80000E26900F4800191421CD1226A08
:101C000000F03F01914217D147F6C071626A01406E
:101C1000B1EB821F10D1A26A4FF0FF3300F44031C4
:101C200003EB5202B1EB024F06D194F82C1000F0F6
:101C30007060B0EB016F01D00120D1E70020CFE749
:101C40000438024000004742800E474200700040C6
:101C50000000FFFF70B5040009D0606A002540B1A4
:101C600025616561A56294F8510040B10CE0012046
:101C700070BD6068B0F5827FF4D0E561F2E784F86A
:101C80005050204600F044F8022084F851002068AB
:101C9000016821F040010160A088218900F4827070
:101CA00001F404410843A18901F400610843217C47
:101CB00001F002010843217D01F001010843218B5D
:101CC00001F400710843217F01F03801084394F8C2
:101CD000201001F080010843218D01F400510843D8
:101CE00021680860A069042101EA104094F82410DA
:101CF00001F010010843216848602068C16921F49F
:101D00000061C1616565012084F85100002070BD4B
:101D100070B586B0044614216846FEF717FC234EC2
:101D2000226800212248022303240525B2421AD149
:101D30001F4A1432166846F480561660126802F480
:101D400080520592026842F001020260006802AA15
:101D500000F00100059082E83200E020CDE90003A8
:101D6000694614481DE0144EB2421CD1104A10328C
:101D7000166846F480461660126802F480420592A6
:101D8000026842F002020260006802AA00F002004B
:101D9000059082E832004FF46040CDE900036946C7
:101DA0000648FFF799FA06B070BD00000030014008
:101DB0003038024000000240003800400004024079
:101DC0002DE9F84F044690F85100984616460F4604
:101DD0000025012801D0022598E060684FF0040B2F
:101DE000B0F5827F01D1A068F8B194F850000128C5
:101DF00026D04FF0010984F85090FFF76BFB824624
:101E0000002F7FD0002E7DD084F851B00020606577
:101E1000A763A687E6872063A086E08620646064C7
:101E2000A068B0F5004F0DD016E084F851B013460D
:101E30000A462046CDF8008000F024F9BDE8F88F6E
:101E40000220FBE72068016821F040010160206862
:101E5000016821F48041016020680168490603D4CB
:101E6000016841F040010160E068D8B13BE02068C2
:101E70008168C90709D0007BA16B0870A06B401C6A
:101E8000A063E08F401EE0870CE0FFF723FBA0EB90
:101E90000A01414503D3B8F1FF3F03D006E0B8F192
:101EA000000F03D0E08F0028E1D11FE003252BE0D5
:101EB00020688168C90709D0C068A16B0880A06B41
:101EC000801CA063E08F401EE0870CE0FFF702FB60
:101ED000A0EB0A01414503D3B8F1FF3F03D0E5E78A
:101EE000B8F1000FE2D0E08F0028E1D15246414620
:101EF000204601F05DF908B120206065606D00E0CA
:101F000000E008B1012501E084F85190002084F838
:101F10005000284692E72DE9F84F044690F850000B
:101F20000026984615468A4601280CD0012784F8D9
:101F30005070FFF7CFFA814694F85100B34601285C
:101F400004D002269AE00220BDE8F88FBAF1000F13
:101F50006FD0002D6DD0032084F85100C4F854B028
:101F6000C4F830A0A586E586C4F838B0A4F83CB023
:101F7000A4F83EB0C4F844B0C4F840B0A068B0F5CE
:101F8000004F09D12068016821F0400101602068FC
:101F9000016841F48041016020680168490603D46A
:101FA000016841F040010160E068B0F5006F6068D1
:101FB00003D058B3012D29D049E008B1012D1FD11C
:101FC000206B21680088C86006E020688168890766
:101FD00009D5216B0988C160206B801C2063E08ECD
:101FE000401EE0860CE0FFF775FAA0EB09014145C1
:101FF00003D3B8F1FF3F03D006E0B8F1000F03D0E0
:10200000E08E0028E1D125E0032635E0206B216831
:102010000078087306E02068816889070AD5216B7B
:1020200009780173206B401C2063E08E401EE0861F
:102030000DE01FE0FFF74EFAA0EB0901414503D385
:10204000B8F1FF3F03D0DFE7B8F1000FDCD0E08E3E
:102050000028E0D14A464146204601F0D7F808B1B1
:1020600020206065A06818B92068C1688068009069
:10207000606D08B1012601E084F8517084F850B019
:10208000304661E72DE9FF4F81B0044690F85000DB
:1020900000260E9F1D4693464FF0010901280FD0E0
:1020A0004FF0010A84F850A0FFF714FA804694F824
:1020B0005100616801280DD0B1F5827F08D103E09D
:1020C000022005B0BDE8F08FA16809B9042801D04D
:1020D0000226C9E00298002865D0BBF1000FFBD0B2
:1020E000002DF9D094F85100042802D0052084F87E
:1020F000510000206065C4F838B0E587A5870299D3
:102100002163E586A586206460642068016849062D
:1021100003D4016841F040010160E068B0F5006F50
:10212000606803D0F0B3012D47D081E008B1012DE4
:102130003CD1206B21680088C860206B801C206324
:10214000E08E401EE08631E02068816889070FD567
:10215000E18E69B1B9F1010F0AD1216B0988C16023
:10216000206B801C2063E08E401EE0864FF000094B
:1021700020688168C9070CD0E18F51B1C068A16B9C
:102180000880A06B801CA063E08F401EE0874FF0AA
:102190000109FFF79FF9A0EB0800B84206D3781CAD
:1021A00004D001E009E05BE003265BE0E08E00285C
:1021B000CAD1E08F0028C7D140E0206B21680078A9
:1021C0000873206B401C2063E08E401EE0862FE0E9
:1021D0002068816889070FD5E18E69B1B9F1010FD7
:1021E0000AD1216B09780173206B401C2063E08EBB
:1021F000401EE0864FF0000920688168C9070CD0B6
:10220000E18F51B1C068A16B0870A06B401CA06346
:10221000E08F401EE0874FF00109FFF75BF9A0EB6C
:102220000800B84202D3781C02D0BAE7002FB8D019
:10223000E08E0028CCD1E08F0028C9D14246394633
:10224000204600F0E3FF18B10126202060650BE076
:10225000A06818B92068C16880680090606D08B1F6
:10226000012601E084F851A0002084F85000304697
:1022700027E77047704710B5040003D094F83D007D
:1022800010B107E0012010BD002084F83C0020467A
:1022900000F01EF8022084F83D00211D206801F0A6
:1022A000BFF8012084F8460084F83E0084F83F001F
:1022B00084F8400084F8410084F8420084F8430028
:1022C00084F8440084F8450084F83D00002010BDE7
:1022D0007047000090F83D10012901D0012070479F
:1022E000022180F83D100168CA6842F00102CA600C
:1022F00000681149884214D0B0F1804F11D00F49C5
:1023000088420ED00E4988420BD00E49884208D030
:102310000D49884205D00D49884202D00C498842B7
:1023200004D1816801F00701062903D0016841F05A
:1023300001010160002070470000014000040040DE
:1023400000080040000C0040000401400040014033
:102350000018004070472DE9F04104460068C66847
:1023600005694FF00007A90713D5B10711D5F91E6C
:10237000016101202077206880698007204602D013
:10238000FFF7E8FF04E000F07EF8204600F07CF85C
:102390002777680716D5700714D521686FF00400F9
:1023A0000861022020772068806910F4407F204671
:1023B00002D0FFF7CFFF04E000F065F8204600F000
:1023C00063F82777280715D5300713D521686FF0F4
:1023D00008000861042020772068C0698007204633
:1023E00002D0FFF7B7FF04E000F04DF8204600F000
:1023F0004BF82777E80616D5F00614D521686FF05C
:1024000010000861082020772068C06910F4407F20
:10241000204602D0FFF79EFF04E000F034F820468B
:1024200000F032F82777E80708D0F00706D02168D7
:102430006FF001000861204600F027F8280608D553
:10244000300606D521686FF0800008612046FFF74E
:1024500010FF680608D5700606D521686FF04000A9
:102460000861204600F018F8A8060AD5B00608D57D
:1024700021686FF0200008612046BDE8F041FFF7B9
:10248000F9BEBDE8F081704770470068B0F1804F39
:1024900001D1FFF753B8704770477047704700008D
:1024A000F8B5016804460868CA684B6910F00F0F58
:1024B0004FF0000559D003F0010602F4907737433E
:1024C00065D0C10705D0D10503D5616C41F001018C
:1024D0006164410705D5D90703D0616C41F0020161
:1024E0006164810705D5D90703D0616C41F004010F
:1024F0006164010707D502F02001314303D0616C0C
:1025000041F008016164616C00293AD0800604D56D
:10251000900602D5204601F0BFF820684069616C42
:10252000C0F38010090700D460B3204601F01EF804
:1025300020684069400621D52068143050E8001F0B
:1025400021F0400140E80012002AF5D1E06BA8B16B
:102550006E490165E06BFEF743FD002811D0E06B8A
:10256000016D01B0BDE8F040084783060FD5930622
:102570000DD52046BDE8F84001F08EB82046FFF7A3
:102580008DFFF8BD2046FFF789FF6564F8BD266B17
:102590002023012E7DD1C6067BD5D60679D50868C5
:1025A0004868009048694FF00206400641D5E16B4B
:1025B000086840680004000CE8D0A28D8242E5D98A
:1025C000E085C869B0F5807F2DD020680C3050E8D8
:1025D000001F21F4807140E80012002AF5D1206824
:1025E000143050E8001F21F0010140E80012002AD9
:1025F000F5D12068143050E8001F21F0400140E878
:102600000012002AF5D184F84230256320680C308E
:1026100050E8001F21F0100140E80012002AF5D117
:10262000E06BFEF794FC6663A08DE18D401A81B2E9
:102630002AE0A08DE18D401A81B2E08D0028A5D05E
:102640000029A3D022680C3252E8000F20F49070C9
:1026500042E80007002FF5D12068143050E8002F21
:1026600022F0010240E80027002FF5D184F8423023
:10267000256320680C3050E8002F22F0100240E85B
:102680000023002BF5D166632046FFF706FFF8BD57
:10269000FFE705062BD5150629D594F8410021281A
:1026A000F5D1A068B0F5805F01D12069B0B1206A92
:1026B000411C2162216800784860E08C401E0004C3
:1026C000000CE084E3D12068C16821F08001C16082
:1026D0002068C16841F04001C160D8E7206A0088E5
:1026E000C0F308004860206A801C2062E5E74006CD
:1026F000CDD55006CBD5CA68204622F04002CA602C
:1027000084F8413000F097FAC1E70000293500084D
:1027100070B5040004D094F84100002510B106E023
:10272000012070BD84F84050204600F023F824209A
:1027300084F841002068C16821F40051C16020463E
:1027400001F00CF82068016921F4904101612068D2
:10275000416921F02A0141612068C16841F40051BA
:10276000C1606564202084F8410084F842006563FC
:10277000002070BD2DE9F04F87B004461421684653
:10278000FDF7E4FEFF48FE4B10380221D4F800C0EC
:10279000DFF8F0E30322002507150E044FF48079DB
:1027A0004FF0400B4FF0006A9C454DD1DEF800C061
:1027B0004CF4002CCEF800C0DEF8003003F4002307
:1027C0000593036843F004030360006800F004000D
:1027D000059090028DE823000820CDE9032069468A
:1027E000E948FEF779FDEA48E849B8460160C0E9E2
:1027F00001A5C0E903574561C0E90659C0E908656C
:10280000FEF7D0FC08B1FEF726F8E148E063E04FA0
:1028100084636037DD48C7E903587D61BD61C7E95E
:10282000075630307D6287E8010C3846FEF7BAFC67
:1028300008B1FEF710F8A763002205213420BC631D
:10284000FEF714FF342071E0D24B9C4574D1DEF8C2
:1028500000C000254CF4801CCEF800C0DEF800302B
:1028600003F480130593036843F0040303600368D3
:1028700003F004030593036843F008030360006852
:1028800001A900F0080005904FF48050009002204C
:10289000904681E82101082004906946BA48FEF775
:1028A0001BFD0420009001A9022081E821010820DD
:1028B00004906946B848FEF70FFDDFF8D482B349AB
:1028C00008F1C00830394046C8F80010C0E901A539
:1028D000C0E90357C8F82060C8F81450C8E9065981
:1028E000C8F82450FEF75EFC08B1FDF7B4FFA74816
:1028F000AA4DC4F83C807830C8F8384085E8010C0F
:102900000020C5E903076861A861C5E90706686298
:102910002846FEF747FC08B1FDF79DFFA56300229E
:1029200005213520AC63FEF7A1FE3520FEF790FEB1
:1029300007B0BDE8F08FFFE7924BDFF864821B1D04
:10294000C44552D1D3F800C0A8464CF0100CC3F8CF
:1029500000C01B6803F010030593036843F00103F4
:102960000360006800F0010005904FF4C0608DE83E
:1029700023000720CDE9032069468A48FEF7ACFC16
:102980008648894960300160C0E901A5C0E9035764
:102990004561C0E90659C0E90865FEF703FC08B1C6
:1029A000FDF759FF7D487D4D6030E06384637E48CC
:1029B000C035783085E8010CC5E90387C5F8148077
:1029C000C5F81880C5E907862846C5F82480FEF7B3
:1029D000E9FB08B1FDF73FFFA56300220521252093
:1029E000AC63FEF743FE2520A0E7DFF8C081C445B5
:1029F0003FD1DEF800C04CF4003CCEF800C0DEF859
:102A0000003003F400330593036843F001030360CF
:102A1000006800F0010005900C208DE823000720DD
:102A2000CDE9032069465F48FEF756FC5749DFF8B9
:102A3000808148314046C8F80010C0E901A5C0E9CE
:102A40000357C8F82060C8F81450C8E90659C8F8F8
:102A50002450FEF7A7FB08B1FDF7FDFEC4F83C804B
:102A6000002205212620C8F83840FEF7FFFD262069
:102A70005CE7DFF84081C44554D1DEF800C0A846C9
:102A80004CF4802CCEF800C0DEF8003003F4802334
:102A90000593036843F002030360006800F002003E
:102AA00005904FF440608DE823000720CDE9032016
:102AB00069464148FEF710FC3D48344960301839FA
:102AC0000160C0E901A5C0E903574561C0E90659A5
:102AD000C0E90865FEF766FB08B1FDF7BCFE3448A7
:102AE000334D6030E06384632848C035183085E892
:102AF000010CC5E90387C5F81480C5F81880C5E93D
:102B000007862846C5F82480FEF74CFB08B1FDF780
:102B1000A2FEA563002205212720AC63FEF7A6FDD7
:102B2000272003E7DFF89480C4457FF401AFD3F892
:102B300000C0A8464CF0200CC3F800C01B6803F08E
:102B400020030593036843F004030360006800F06A
:102B500004000590C0208DE823000820CDE9032063
:102B600069460948FEF7B8FB0F49DFF854A0183949
:102B70005046CAF800108905C0E9011522E000009E
:102B8000004C0040403802400008024040600240D3
:102B9000AC05002000500040000C0240CC06002094
:102BA0000010014000000240406402400044004028
:102BB000EC070020004800400004024000140140DF
:102BC0000C090020C0E90357CAF82060CAF8145065
:102BD000CAE90659CAF82450FEF7E4FA08B1FDF72D
:102BE0003AFE134DC4F83CA01048CAF8384028609B
:102BF0004FF02060C5E9010BC5E90387C5F81480D3
:102C0000C5F81880C5E907862846C5F82480FEF770
:102C1000C9FA08B1FDF71FFEA56300220521472070
:102C2000AC63FEF723FD472080E60000A06402406D
:102C30006C09002070477047FEE70000104810B58F
:102C40000E4901600321416000214FF400228160A0
:102C5000C0E903124FF4401242610176012242762C
:102C60008276C17601774277FEF709F8002803D013
:102C7000BDE81040FDF7EFBD10BD0000006400404E
:102C8000F0020020104810B50E4901600321416098
:102C900000214FF400228160C0E903124FF440127A
:102CA00042610176012242768276C17601774277CF
:102CB000FDF7E5FF002803D0BDE81040FDF7CBBDD0
:102CC00010BD00000068004018030020354808B51A
:102CD000016841F480010160016801F48001009104
:102CE000016841F4001101600068002200F4001046
:102CF000009005210B20FEF7B9FC0B20FEF7A8FC85
:102D0000002205210C20FEF7B1FC0C20FEF7A0FCF0
:102D1000002205210D20FEF7A9FC0D20FEF798FCEE
:102D2000002205210E20FEF7A1FC0E20FEF790FCEC
:102D3000002205210F20FEF799FC0F20FEF788FCEA
:102D4000002205211020FEF791FC1020FEF780FCE8
:102D5000002205212F20FEF789FC2F20FEF778FCAA
:102D6000002205213920FEF781FC3920FEF770FC96
:102D7000002205213A20FEF779FC3A20FEF768FC94
:102D8000002205214520FEF771FC4520FEF760FC7E
:102D9000002205214620FEF769FCBDE808404620D8
:102DA000FEF756BC3038024000B587B01C220749F8
:102DB0006846FDF777FB0021684602F030F80449C9
:102DC000086000F083FD07B000BD00004C670008FC
:102DD000040000202DE9F04F87B014216846FDF76C
:102DE000B5FB5B480024016841F0100101600168F7
:102DF00001F010010591016841F0040101600168D2
:102E000001F004010591016841F080010160016851
:102E100001F080010591016841F001010160016844
:102E200001F001010591016841F0020101600168B2
:102E300001F002010591016841F00801016000689C
:102E4000DFF810B100F0080005900122102158466B
:102E5000FEF73AFB4FF46068002241463E48FEF719
:102E600033FB4FF48059012249463C48FEF72CFBC6
:102E70004FF4007A012251463948FEF725FB4FF204
:102E8000FF100325CDE90005694602943248FEF79C
:102E900023FA4EF23F10CDE900056946029430480E
:102EA000FEF71AFA49F60310CDE9000569460294C7
:102EB0005846FEF711FA102001260227CDE9000638
:102EC000CDE9024769465846FEF706FA9F20CDE94C
:102ED0000005694602942148FEF7FEF9CDF800800E
:102EE000CDE9016469461C480394FEF7F5F9CDF875
:102EF00000900397CDE9016469461848FEF7ECF9A4
:102F0000280200904FF48810CDE90107154F69465B
:102F10003846FEF7E1F94FF6FB40CDE9000569467A
:102F200002943846FEF7D8F9CDF800A0CDE9016447
:102F300069460B480394FEF7CFF9002204211720BD
:102F4000FEF794FB1720FEF783FB07B0BDE8F08F78
:102F500030380240000002400010024000040240ED
:102F600000080240000C0240094810B50749016002
:102F7000012141604FF47A618160FEF7B1FA0028C7
:102F800003D0BDE81040FDF766BC10BD0030004026
:102F9000400300200F4810B50D4901604FF48271C5
:102FA000416000218160C1604FF400720161C0E99D
:102FB0000512C1610162416281620A21C162FEF7AC
:102FC00049FE002803D0BDE81040FDF744BC10BD09
:102FD000003001404C030020104810B50E4901603C
:102FE0004FF48271416000218160C1604FF4007232
:102FF0000161C0E905120822C0E90721416281622E
:103000000A21C162FEF726FE002803D0BDE8104069
:10301000FDF721BC10BD000000380040A4030020D3
:103020000C4810B50A4901604FF4E13141600021BC
:1030300081600C22C160C0E904128161C161FFF7A7
:1030400067FB002803D0BDE81040FDF704BC10BDAD
:10305000004C0040FC0300200C4810B50A490160F8
:103060004FF4E1314160002181600C22C160C0E970
:1030700004128161C161FFF74BFB002803D0BDE85A
:103080001040FDF7E8BB10BD005000404404002094
:103090000C4810B50A4901604FF4E131416000214C
:1030A00081600C22C160C0E904128161C161FFF737
:1030B0002FFB002803D0BDE81040FDF7CCBB10BDAE
:1030C000001001408C0400200C4810B50A49016032
:1030D0000B494160002181600422C160C0E90412F3
:1030E0008161C161FFF714FB002803D0BDE81040E7
:1030F000FDF7B1BB10BD000000440040D404002027
:10310000A08601000C4810B50A4901604FF4E13176
:103110004160002181600C22C160C0E9041281611C
:10312000C161FFF7F5FA002803D0BDE81040FDF7B4
:1031300092BB10BD004800401C0500200C4810B593
:103140000A4901604FF4E1314160002181600C22A5
:10315000C160C0E904128161C161FFF7D9FA00289A
:1031600003D0BDE81040FDF776BB10BD0014014050
:1031700064050020FEE7FEE702464FF48051014857
:10318000FEF7A2B9000402400A4601464FF47A73E2
:103190000148FEF715BE0000A40300200A460146C0
:1031A0004FF47A730148FEF7B6BE0000A403002076
:1031B000F8B5044640684FF48273984221D1A06864
:1031C0004FF48065B0F5004F01D0A8420AD12068C5
:1031D000066826F0400606606068984211D1A06833
:1031E000A8420ED000920B4600228021204600F01B
:1031F00043F8002804D0606D40F020006065032093
:10320000F8BD00920B4600220121EFE7F8B5154604
:103210000E460B46009204460122022100F02CF8D3
:10322000A0B9134813490068B0FBF1F04FF47A716C
:10323000484300906068B0F5827F0DD1334600228C
:1032400080212046009500F017F870B1606D40F0C5
:10325000200060650320F8BD009830B1401E00904A
:1032600020688068C0430006F6D50020F8BD000045
:103270009800002000366E012DE9F8431E46914665
:1032800088460446089DFEF725F9401B351AFEF7CF
:1032900021F9074625480068C0F3CB30684338E081
:1032A000701C37D0FEF716F9C01BA84203D215B127
:1032B000009860B32CE02068416821F0E001416093
:1032C0006068B0F5827F0BD1A068B0F5004F02D0E6
:1032D000B0F5806F04D12068016821F040010160E1
:1032E000A06AB0F5005F09D12068016821F400519F
:1032F00001602068016841F400510160012084F8F8
:103300005100002084F850000320BDE8F883002518
:10331000401E00902068816838EA010004D0002136
:103320004945BDD10020F0E70121F9E798000020D0
:10333000012001F068FDFBE700F088FBFCE70000DE
:1033400010B5502080F31188BFF34F8FBFF36F8FFC
:1033500003F020F918B104494FF0805008600020B4
:1033600080F3118810BD000004ED00E030B593B08B
:1033700030216846FDF7EAF814210CA8FDF7E6F8BD
:103380001E480024016841F080510160006800F08F
:10339000805011901A48016841F480410160006832
:1033A000102100F4804011900A2000900120CDE906
:1033B00003010225CDE905050820CDE90740A82035
:1033C000CDE9090504200B906846FEF78DFA08B197
:1033D00072B6FEE70F20CDE90C054FF4A050CDE901
:1033E0000E404FF48050109005210CA8FEF770F9A4
:1033F000002801D072B6FEE713B030BD403802405D
:10340000007000400248016841F47001016070479B
:1034100088ED00E00148FEF79EBF0000CC090020C7
:10342000F0B50268294C2A4D2A4E2B4F2B4B4FF0FA
:10343000804CA04209D0604507D0A84205D0B042D8
:1034400003D0B84201D0984204D122F0700E4A68ED
:1034500042EA0E02A0421BD0604519D0A84217D004
:10346000B04215D0B84213D0984211D01C4DA8429A
:103470000ED01C4DA8420BD01B4DA84208D01B4DAE
:10348000A84205D01A4DA84202D01A4DA84203D135
:1034900022F44075CA682A434D6922F080022A430B
:1034A00002608A68C2620A688262A04201D09842C1
:1034B00001D109690163012141610169C90703D093
:1034C000016921F001010161F0BD0000000001402F
:1034D0000004004000080040000C004000040140CF
:1034E00000400140004401400048014000180040F5
:1034F000001C00400020004010B5044800F05EF8B9
:10350000BDE810400148FEF7CBBF0000FC030020DF
:1035100010B5044800F052F8BDE810400148FEF72D
:10352000BFBF00004404002010B5806B0021C1859E
:10353000C184FEF7B3FF10BD38B5134602681468A6
:1035400054680094D46844F01004D460026854694C
:1035500044F040045461026854680A46C06B214636
:10356000FDF78AFE002800D0FEE738BD01680C3167
:1035700051E8002F22F4907241E80023002BF5D18E
:103580000168143151E8002F22F0010241E80023C4
:10359000002BF5D1016B012909D101680C3151E8EB
:1035A000002F22F0100241E80023002BF5D120214A
:1035B00080F84210002101637047000038B50446CE
:1035C00000680168C90654D5C068C00651D5E06BD3
:1035D0000068016821F0010101602068016840680D
:1035E00000902448844206D12348AFF30080802114
:1035F0002148FCF789FF2148844208D11E488030C9
:10360000AFF300801C4880218030FCF77DFF1C4810
:10361000844206D11B48AFF3008080211948FCF793
:1036200073FF1948844208D116488030AFF30080F8
:10363000144880218030FCF767FF1448844206D18B
:103640001348AFF3008080211148FCF75DFF11485B
:10365000844208D10E488030AFF300800C488021AE
:103660008030FCF751FFE06B0068016841F0010118
:10367000016038BD8C040020D0AE0020D4040020AE
:103680001C050020D0AF0020FC03002044040020D3
:10369000D0B000206405002008B590F8421022291F
:1036A00001D0022008BD82684FF480539A4201D1B4
:1036B000016921B1816A9A421BD04AB10AE00268CD
:1036C000816A5268C2F308020A80816A891C08E094
:1036D000026972B10268526802F07F020A70816A60
:1036E000491C8162C18D491E0904090CC18503D0A2
:1036F0001BE002685268F1E70168CA6822F0200204
:10370000CA600168CA6822F48072CA6001684A69A6
:1037100022F001024A61202180F842100021416319
:10372000026B012A03D0FFF785FA002008BD016370
:1037300001680C3151E8002F22F0100241E800230B
:10374000002BF5D101680A68D20602D50A684968DB
:103750000091818DFEF7A1FEE7E7000070B50446F9
:1037600000680169E26821F4405111430161216957
:10377000A068E26908436169114308432168CA6887
:1037800049F20C639A430243CA6020684169A26906
:1037900021F440711143416131492068884202D0CF
:1037A0003049884202D1FEF75DF801E0FEF74AF8A1
:1037B000E2690023192164253226B2F5004F6268C0
:1037C00028D0A0FB0101930F9200FCF7AFFD01464A
:1037D000B0FBF5F06FF01802504301EB800006EBF0
:1037E0000010B0FBF5F000F0F002B1FBF5F002EBD9
:1037F0000012B1FBF5F06FF01803584301EB8000A5
:1038000006EB0010B0FBF5F000F00F00216810444B
:10381000886070BDA0FB010192185B41FCF786FD3A
:103820000146B0FBF5F00201B1FBF5F06FF01803B3
:10383000584301EB800006EBC000B0FBF5F000F050
:10384000F80002EB4002B1FBF5F0584301EB8000B9
:1038500006EBC000B0FBF5F000F00700D6E7000073
:10386000001001400014014010B50448FFF7A6FE07
:10387000BDE810400148FEF713BE00008C04002094
:1038800010B50448FFF79AFEBDE810400148FEF766
:1038900007BE0000D404002010B50448FFF78EFED8
:1038A000BDE810400148FEF7FBBD00001C050020EC
:1038B00010B50448FFF782FEBDE810400148FEF74E
:1038C000EFBD000064050020FEE7000000B587B0F2
:1038D0001C2206496846FCF7E5FD0021684601F018
:1038E0009EFA0349086007B000BD00003067000879
:1038F000000000200907090E002804DB00F1E02089
:1039000080F80014704700F00F0000F1E02080F80C
:10391000141D704710B5094802F063FB0020074AE8
:1039200001460C3202EB0013401C19700828F9D331
:10393000BDE81040014802F06FBB0000140A0020EF
:1039400010B504000AD00B4802F04BFB2068017848
:10395000012907D072B6FCF77EFFFEE772B6FCF7CE
:103960007AFFFEE7001D02F03CFBBDE81040014875
:1039700002F052BB140A002010B504000AD00B4814
:1039800002F02FFB20680178012907D072B6FCF7FE
:1039900062FFFEE772B6FCF75EFFFEE700210170F2
:1039A000BDE81040014802F037BB0000140A0020B7
:1039B00010B5040010D0164802F013FB1448002183
:1039C00010F10C0000EB011212783AB1491C0829E1
:1039D000F8D30F4802F020FB002010BD00EB0110CF
:1039E0000121206001702168091D0CD000200246D1
:1039F00041F82020401C0228FAD30A72044802F041
:103A00000BFB012010BD72B6FCF725FFFEE700009E
:103A1000140A002010B504000AD00B4802F0E1FAA5
:103A200020680178012907D072B6FCF714FFFEE781
:103A300072B6FCF710FFFEE7001D02F0EDFABDE8DC
:103A40001040014802F0E8BA140A002030B585B0F1
:103A50008C208DF810000020FFF78EFB012104A8B8
:103A6000FFF79CFB0D216846FFF78EFB0120FFF757
:103A700083FB00206D46291849782954401CC0B2A8
:103A80000D28F8D31B4CBDF800002080BDF80200C3
:103A90006080BDF80400A080BDF80600E080BDF89D
:103AA00008002081BDF80A006081A2208DF8100076
:103AB0000020FFF761FB012104A8FFF76FFB032142
:103AC0006846FFF761FB0120FFF756FB002029182D
:103AD00049782954401CC0B20328F8D3BDF800002F
:103AE0000449A0810E2201F10E00FCF796FC05B0FE
:103AF00030BD000090AB00202DE9F04105460F4697
:103B00009046104601F073F998BB95B398F847605A
:103B1000002422E0C4EBC40215F8321051B101298F
:103B200008D0022906D0092904D004290DD3012E7A
:103B300007D00AE005EBC2004246012100F018FA66
:103B400009E04146002000F027FB40B942462146EB
:103B5000284600F05FFE641CE4B2BC42DAD3012EBA
:103B600009D1002807D14146BDE8F041012000F00D
:103B700013BB4FF0FF30BDE8F081000010B50446E4
:103B800001F035F900282BD1242020704FF400508B
:103B9000A4F84A000320A4F84800607A20B100206D
:103BA000E072606910B103E00120F9E70D4860613F
:103BB000204600F0B5FA002812D10B4820623330BD
:103BC000606208202076112161760721A1760749DD
:103BD000E16584F860002046BDE8104000F051B96E
:103BE00010BD00006E6700086E8700087C00002092
:103BF0002DE9FC4104460020CDE900000D461646A3
:103C0000104601F0F4F870BB6CB36A4629462046B2
:103C100001F05AFB002824D1DDE900410D4632466F
:103C2000204600F0C8FC00281BD124F0070125F035
:103C30000102114315D096F84770012F04D1314687
:103C400000F0AAFA00280CD132462046294600F09E
:103C5000EDFC012F05D1002803D13146012000F0F1
:103C60009BFABDE8FC81FFE74FF0FF30F9E72DE953
:103C7000F04105460F469046104601F0B8F888BB63
:103C800085B398F84760002420E0C4EBC40215F81F
:103C9000321041B1012906D0022904D0092902D0ED
:103CA000012E07D00AE005EBC2004246012100F0D8
:103CB000EBFA09E04146002000F06EFA40B94246B6
:103CC0002146284601F0CDFC641CE4B2BC42DCD3A2
:103CD000012E09D1002807D14146BDE8F04101205D
:103CE00000F05ABA4FF0FF30BDE8F08110B5FDF793
:103CF000F1FB4FF08041496A00EB4002C2EBC0107B
:103D000001EBC0000149486010BD000074000020B4
:103D100070B50546FFF7EAFF4FEA0004FFF7E6FF3C
:103D2000001BA842FAD370BDF0B504460023184624
:103D3000557E11E0166A03EB4307F65D8E4209D10A
:103D4000106A03EB43010844018821808078A07049
:103D50000120F0BD5B1CDBB29D42EBD8F0BD2DE92C
:103D6000F7434FF0000514465FEA01094FF01006D3
:103D70004FF030082F4626D02CB3207E9DF800103F
:103D8000884239D91346012269462F2000F02EFAC5
:103D900000281AD1E089102827D2C10701D0401E7F
:103DA000E081E28909EB0701B24223460FD8404681
:103DB00000F09FF8A17BCA19D7B201EB080202F00C
:103DC000FF08294408E04FF0FF30BDE8FE8332468B
:103DD000404600F08EF8A919CDB2C5F11001CEB25F
:103DE0000028F2D1002EDCD1EFE72346102249460D
:103DF000302000F07EF8E8E76FF00900E5E72DE9F4
:103E0000F04706460F469146104600F0E4FFA0BB7F
:103E10009EB399F8475000242CE006EB041898F85C
:103E20000010042905D3012D03D14946002000F0DC
:103E3000B3F9B0B998F8000009280BD0292803D0AD
:103E40006FF00700BDE8F08708F10400494600F074
:103E50007DFD04E008F10400494600F0F5FD00286E
:103E6000F0D1012D04D118B94946012000F094F990
:103E7000641CE4B2BC42D0D3E4E7FFE74FF0FF306C
:103E8000E0E71FB5044690F84800800716D52046A5
:103E900000F0A1FF18B14FF0FF3004B010BD292091
:103EA0008DF80000224601216846FFF7A8FF002890
:103EB000F3D1BDF80410A4F84410EEE76FF007004A
:103EC000EBE770B505460C46084600F084FF68B97C
:103ED00065B1226C44F6206061689047234629460C
:103EE000BDE870400122212000F003B84FF0FF3000
:103EF00070BD2DE9F0438046A1B0174689461C46A7
:103F00000025184600F067FF06002BD1B9F1000F1D
:103F100028D0607A08B948F08008E07AD4F838C030
:103F2000C219694640466368E047A07294F84700AA
:103F3000226C6168012806D002209047A07A68B1FF
:103F40006FF0010610E04FF4E170F6E7E17A4219F4
:103F50008A5C09F805206D1CADB200E06846BD42E0
:103F6000F4D301E04FF0FF3621B03046BDE8F083D6
:103F70002DE9FC5F05468A469346104600F02BFF6C
:103F80004FF0FF3900287AD1002D78D09BF8477088
:103F9000002668E0C6EBC60815F83800042801D2F0
:103FA000022807D1012F05D15946002000F0F4F86E
:103FB000002865D115F8380040B101280DD002283D
:103FC00012D0092846D06FF007004EE005EBC8007C
:103FD0005946001D00F08BFB42E005EBC800594636
:103FE000001D00F084FC3BE005EBC800001D0090C4
:103FF000584600F0F0FE58BB009848B380465B4638
:10400000012201A96B20FFF774FF10BB9DF804008B
:104010005946C0F3401088F80000009800F0CDFB2E
:10402000040022D15B46012269464420DDF800806D
:10403000FFF75FFF68B99DF80000010988F80610D6
:104040009DF8000000F00F0188F80510204608E0F8
:1040500048460AE005EBC8005946001D00F0AFFCD9
:1040600018B9761CF6B2564594D3012F08D1002812
:1040700006D15946BDE8FC5F012000F08DB84846E6
:10408000BDE8FC9F70B504460D46084600F0A3FE4F
:1040900040B93CB12B462146BDE8704001220320C7
:1040A000FFF727BF4FF0FF3070BDF8B5044600079B
:1040B000060E00200D4617468DF80000134601221B
:1040C00069465820FFF715FF002821D1042D24D27E
:1040D000200744EA106035B1012D0AD0022D0CD022
:1040E000032D0FD115E09DF8001081438DF80010CD
:1040F00008E09DF80000204302E09DF800003043F6
:104100008DF800003B4601226946582000F06EF809
:10411000F8BD9DF800100843F2E76FF00B00F8BD02
:104120003EB504461B4900208DF80000D1E900018E
:10413000CDE90101204600F04EFE002824D10125E2
:1041400084F84750607A38B9234601226946002036
:10415000FFF7CFFE002817D1234601226946002031
:10416000FFF7C7FE00280FD121789DF8000081429B
:104170000BD110202073E5760198A062BDF80800ED
:10418000A085204600F0D3F83EBD20706FF00200FD
:104190003EBD00006867000838B5054600208DF870
:1041A00000000C46084600F016FE002816D12346F3
:1041B000012269467C20FFF79CFE00280ED19DF865
:1041C0000000234665F300008DF8000001226946D7
:1041D0007C2000F00BF810B16FF00C0038BD9DF89A
:1041E000001001F0010184F8471038BD2DE9F047B7
:1041F0000746914688461C46184600F0ECFD06002E
:104200003DD1B8F1000F3AD0607A08B907F07F07C6
:1042100094F8470001280DD0E56B4A4641463846E0
:104220006368A847A072226C0220616890477C2FC7
:1042300019D01FE0002513E07819D4F83CC008EB32
:104240000501C0B201226368E047A072226C4FF4FE
:10425000E17061689047A07A0028E8D16D1CADB28A
:104260004D45E9D3E3E798F80000C00700D00120EE
:1042700084F84700A07A20B16FF0010601E04FF00A
:10428000FF363046BDE8F0872DE9F04104460F4681
:104290009046104600F09FFD78BB74B398F84760D5
:1042A000002534E0012E05D141460020FFF774FFC0
:1042B00000283AD1C5EBC50014F8301041B10129EE
:1042C0000DD0022912D0092918D06FF0070020E084
:1042D00004EBC0004146001D01F056F814E004EB69
:1042E000C0004146001D01F0FEF90DE004EBC000E6
:1042F0004146001D01F052F906E014E004EBC00055
:104300004146001D01F0B3FA18B96D1CEDB2BD4273
:10431000C8D3012E09D1002807D14146BDE8F0419C
:104320000120FFF739BF4FF0FF30BDE8F0817CB5C9
:104330000546B6208DF8000000208DF804002846C0
:1043400000F049FD040020D12B46012269467E2061
:10435000FFF74CFF04462A6C4FF4FA6069689047F7
:10436000012085F8470084B9687A38B92B460122C4
:1043700001A90020FFF7BDFD040006D1284600F08A
:1043800040F8040001D1C5E90C0020467CBD7FB592
:1043900014460D460020FEF7EFFE00210A20FFF72D
:1043A000B7FC01216846FEF7F9FEA1B22846FEF7E8
:1043B000EBFE44B200210A20FFF7AAFC0120FEF721
:1043C000DBFE04B0204670BD7FB514460D460020CC
:1043D000FEF7D2FE00210A20FFF79AFC0121684671
:1043E000FEF7DCFEA1B22846FEF7D8FE44B200215B
:1043F0000A20FFF78DFC0120FEF7BEFE04B0204628
:1044000070BD38B5044600208DF80000204600F04D
:10441000E2FC40BBB4F84A0028B3E089C10701D0F0
:10442000401EE08180B2022801D20220E0810021FA
:104430004FF47A70FFF76CFC204601F07BFF0028F8
:1044400010D121466846FFF73CFD9DF8001000287A
:1044500001F00F018DF80010217403D1012901D062
:104460006FF0080038BD4FF0FF3038BD08B5034687
:10447000012269461B20FFF73CFD00280ED19DF864
:104480000010C1F382018DF80010002906D0012927
:1044900005D0022906D0032900D1C01F08BD6FF046
:1044A000040008BD6FF0050008BD30B5002480B1E0
:1044B00005788D4204D20170197A41F00101197218
:1044C0000178914207D90270187A40F00200187200
:1044D00001E04FF0FF34204630BD2DE9FC414FF0A4
:1044E000000805460C460B46CDF800808DF8048088
:1044F0004746022269464B20FFF7FBFC060032D1FB
:10450000E9799DF8000042F2107661F347008DF8DA
:10451000000069789DF8010061F3C7108DF8010073
:10452000A97861F386108DF80100E97861F38300C2
:104530008DF80100297961F301008DF80100214611
:1045400001A8FFF79FFD9DF8041001F0040101434D
:104550000CD0226C3046616890477F1CFFB2142F4C
:10456000EDD96FF00E063046BDE8FC8123460222ED
:1045700069464B20FFF73AFE06464FF47A77226CE5
:10458000384661689047002EEDD1687820B101204F
:10459000E076E8782077E6E784F81B80234601225E
:1045A00005F108014D20FFF721FE0646226C384632
:1045B00061689047D7E7F8B504460F46164613469C
:1045C000012269467D20FFF794FC05002CD1E0070D
:1045D00005D09DF8000040F004008DF80000A00711
:1045E00005D59DF8000040F002008DF8000060073E
:1045F00005D59DF8000040F001008DF8000007F09F
:104600000100010005D09DF8001041F008018DF86F
:10461000001004F00701014306D033460122694629
:104620007D20FFF7E3FD05462846F8BD70B504463A
:104630000D4600201646210703D51146012001F042
:10464000F6F9E10603D53146012000F018FFA10676
:1046500003D53146012001F05BF9610603D53146EF
:10466000012001F076FB210603D53146012001F03F
:1046700038FBE10503D53146012001F04BFAA105D5
:1046800003D53146012001F0BAF805F0040211000B
:1046900003D03146012001F07CF8210303D53146D7
:1046A000012001F0DCFBE10205D53146BDE8704098
:1046B000012001F00ABC70BDF0B504460023184685
:1046C000957E11E0566A03EB4307F65D8E4209D1F1
:1046D000506A03EB43010844018821808078A07070
:1046E0000120F0BD5B1CDBB29D42EBD8F0BD38B5BC
:1046F0000446002000900D46084600F06CFBD0B93F
:10470000CCB12B46022269464020FFF7F2FB00287D
:1047100010D19DF80010CA09A270C1F30211617096
:104720009DF8001001F00F0121709DF8011001F0BB
:104730000301E17038BD4FF0FF3038BD70B586B071
:10474000044600200D4600900190029003900A4616
:104750000490042104A8FFF7E7FA48B39DF811007C
:104760002A466946FFF7FBFA020023D19DF81200A2
:104770006B461DF80010401CC0B21DF80050401CD4
:104780002E02C5B23143C1F30C002080C1F340308A
:10479000A080C1F38030E080C80B2081585D6D1C83
:1047A000E9B2595C40EA0120C0F30A00608001E0F0
:1047B0006FF0070206B0104670BD38B50446002001
:1047C0000D460B460090022269464B20FFF791FBF5
:1047D00000281ED19DF800104908E1719DF80110D4
:1047E000C90961709DF80120C2F38012A2709DF882
:1047F0000120C2F38102E2709DF8012002F0030261
:10480000227106D12B46012204F108014D20FFF749
:1048100070FB38BD70B5C1EBC10186B010F8313006
:1048200000EBC1006FF00705072B4BD008DC032B12
:104830000FD0042B31D0052B36D0062B2BD141E0E5
:10484000082B3FD0132B44D0142B49D01D2B22D141
:1048500031E0041D0020009001900290039004902C
:104860001646032104A8FFF75FFAA0B19DF81100D6
:1048700032466946FFF773FA00280AD19DF81220E4
:104880001DF80210521CD2B21DF8022041EA02218A
:10489000218006B070BD2846FBE706B01146BDE892
:1048A0007040001DFFF74ABF06B01146BDE87040DA
:1048B000001D00F0FDB806B01146BDE87040001DB7
:1048C00000F062B906B01146BDE87040001D00F06E
:1048D0002EB906B01146BDE87040001D00F0A9B920
:1048E00006B01146BDE87040001D00F0D6B938B5DD
:1048F0000446002000900D46084600F06CFA10BBFC
:104900000CB32B46022269464220FFF7F2FA002838
:1049100018D19DF80010CA09A270C1F3801262710B
:10492000C1F3011161709DF8001001F00F012170B9
:104930009DF80110C1F3C001E1709DF8011001F074
:104940000701217138BD4FF0FF3038BD30B587B059
:10495000044600200190009002900390069091F888
:1049600048000D4680060DD50B46012204A91E20E5
:10497000FFF7BFFA002803D19DF8101018E021803E
:1049800007B030BD0A46292106A8FFF795FE98B169
:104990009DF819002A466946FFF7E1F90028EFD192
:1049A0009DF81A301DF8031001F07F010DF8031077
:1049B0004A06E4D58039E2E76FF00700E0E770B51A
:1049C00086B0044600200D460090019002900390AE
:1049D0000A460490092104A8FFF7A6F970B39DF8D0
:1049E00011002A466946FFF7BAF9030029D19DF85C
:1049F000120069461DF80020401CC0B21DF800508E
:104A0000401C42EA0522C0B2C2F30A0222801DF80D
:104A10000020401CC0B21DF80050401C2E02C5B240
:104A20003243C2F30A006080485D6D1CEAB2895CC3
:104A300040EA0120C0F30A00A08002E0FFE76FF027
:104A4000070306B0184670BD30B585B00446002097
:104A50000D4600900190029003900A4604900921AF
:104A600004A8FFF729FEF0B19DF811002A46694617
:104A7000FFF775F9010018D19DF812001DF80030FC
:104A800003F0010323701DF80030C3F3400363708B
:104A90001DF80030C3F38003A3701DF80000C0F3BD
:104AA000C200E07001E06FF0070105B0084630BDBC
:104AB00070B586B0044600200D460090019002902B
:104AC00003900A460490052104A8FFF72DF948B386
:104AD0009DF811002A466946FFF741F9020023D1EB
:104AE0009DF812006B461DF80010401CC0B21DF866
:104AF0000050401C2E02C5B23143C1F30C0020808F
:104B0000C1F34030A080C1F38030E080C80B208129
:104B1000585D6D1CE9B2595C40EA0120C0F30A00FF
:104B2000608001E06FF0070206B0104670BD30B53E
:104B300085B0044600200D4600900190029003903D
:104B40000A460490072104A8FFF7EEF8C8B19DF8C3
:104B500011002A466946FFF702F900280FD19DF897
:104B600012201DF80210521CD2B21DF8022041EA98
:104B70000221C1F309022280C1F38021618005B0C6
:104B800030BD6FF00700FAE72DE9F34F4FF0000A50
:104B900087B0D146CDF80CA0CDF800A0CDF804A088
:104BA000CDF808A010265746CDF810A01D2104A866
:104BB000089AFFF7B9F8A8B39DF811509DF812B004
:104BC000E81C00F0FF080BF10200C0B22C46059073
:104BD00025E069462046089AFFF7C1F85FEA000A17
:104BE0001BD1AC4200D98346444500D1059E5846AE
:104BF000694610E00A5C401CC0B2B04204D20B5CB3
:104C0000401C4FEA0329C0B2079B42EA090223F87D
:104C100017207F1CFFB2B042ECD3641CE4B24445C1
:104C2000D7D902E0FFE76FF0070A09B05046BDE8A8
:104C3000F08F70B586B0054600200E4600900190BA
:104C4000029003900A4604906C46132104A8FFF7D3
:104C50006BF8F8B19DF8110032466946FFF77FF80E
:104C6000002815D19DF81210490814F81120491C8C
:104C7000C2F300122A8034F81120491CC9B26A809C
:104C800034F81120491CC9B2AA8034F81110E98007
:104C900006B070BD6FF00700FAE770B586B0054644
:104CA00000200E4600900190029003900A46049066
:104CB0006C46142104A8FFF737F848B39DF811009B
:104CC00032466946FFF74BF800281FD19DF81210B5
:104CD0004908491C34F81120491CC9B22A8034F80B
:104CE0001120491CC9B26A8034F81120491CC9B28C
:104CF000AA8034F81120491CC9B2EA8034F8112086
:104D0000491CC9B22A8134F81110698106B070BDFE
:104D10006FF00700FAE7000010B59CB0134801904F
:104D2000002005908DF8090011480E9011480F9051
:104D3000114810902E20ADF80E006846FEF71EFFB9
:104D40000A4C641E002820700ED1684600F068FBF3
:104D50002070002808D109A06A4600681A90022134
:104D60001AA8FEF745FF20701CB010BD750000208A
:104D70008F430008C9430008113D000800010000EE
:104D8000FCF7E4FBFEF7F2FAFEF724F8FDF79EFFCE
:104D9000FDF754FFFDF776FFFEF7FCF8FEF71CF970
:104DA000FEF73EF9FEF758F9FEF772F9FEF78CF9B7
:104DB000FEF7A8F9FEF7C2F9FEF7D6F8FBF7FCFC00
:104DC000FDF7F2FF00F026F8FEE7014600208429F7
:104DD00000D0C81C7047002128B1826B1AB1C26B89
:104DE0000AB1006C08B94FF0FF3108467047002146
:104DF00028B1826B1AB1C26B0AB1006C08B94FF0CE
:104E0000FF310846704710B500B9012001F000FAE3
:104E1000002010BD10B501F021FA002010BD7FB5B3
:104E20000D4604464169B0F9080081B1A16971B12C
:104E3000FFF7CBFFD4E905128DE80700D4E9001095
:104E40002B46226901F07BFB039004B070BDFFF795
:104E5000BCFF03A9CDE90001208A2B4682B2D4E928
:104E6000001001F03FFB012801D00020EDE703987E
:104E7000EBE700002DE9F041184C0F460546E668C7
:104E80002068001D01F0FDF838B9206890F82C105A
:104E900001208840216981432161681C07D137B115
:104EA0002168BDE8F0410E48091D01F02DB92068C8
:104EB0003544B5424560216805D2A06BBDE8F0419C
:104EC000091D01F009B9606B091D01F005F9A06A1F
:104ED000854200D2A562BDE8F08100000C000020F0
:104EE0007C0B00202DE9F041054601F019F92E4C0C
:104EF000A068401CA06020682C4F10B1606940B3CE
:104F00002DE02560A068012829D1002606EB860047
:104F100007EB800001F0D2F8761C072EF6D3234869
:104F20008C3001F0CBF82148A03001F0C7F81F48C1
:104F3000B43001F0C3F81D48C83001F0BFF81B4879
:104F4000DC3001F0BBF819488C3060631430A0638A
:104F500005E02068E96AC06A884200D82560606A76
:104F6000401C6062E96A0120226988401043206188
:104F700001EB810007EB8000291D01F0C5F801F06D
:104F8000EFF8606900280CD02068E96AC06A88429E
:104F900007D207494FF080500860BFF34F8FBFF32F
:104FA0006F8FBDE8F08100000C000020A00A0020F7
:104FB00004ED00E010B5044690F8510058B1012806
:104FC0000CD002280FD0502080F31188BFF34F8FF0
:104FD000BFF36F8FFEE7206B01F0D6F82046BDE8E7
:104FE000104001F0D1B810BD10484FF420414207E5
:104FF00006D0C01D0D4920F00700411AC1F520411F
:105000000B4A00230144C2E900030839183A21F091
:10501000070111604B600B600B1AC0E9001393602D
:105020004FF000405360506170470000900B00202B
:1050300060000020144E154CA6F1C8074FF08058B0
:10504000DFF84C9012E000BF01F06AF8F068C56824
:10505000281D01F016F8A068401EA0606068401E80
:10506000606001F07DF82846FFF7A4FF6068002823
:10507000EAD138680128F9D9C9F80080BFF34F8F09
:10508000BFF36F8FF2E70000680B00200C000020D8
:1050900004ED00E02DE9F0479A46DDE909848146F8
:1050A0006FF00303206B03EB82021044089E20F094
:1050B0000707780707D0502080F31188BFF34F8F80
:1050C000BFF36F8FFEE7002561B1002023180A5C53
:1050D00083F834200A5C12B1401C1028F6D384F8FF
:1050E000435001E084F83450072E00D30626E662D0
:1050F000C4E91165201D00F0ECFF04F1180000F078
:10510000E8FF2461C6F107006462A061E56484F8E9
:10511000505052464946384600F0C0F82060B8F179
:10512000000F01D0C8F80040BDE8F08730B5114944
:1051300000E011460A688242FBD34B685C18844247
:1051400003D1406818444860084643681C189442DC
:1051500009D1084C183C2468A24209D052681A446C
:1051600042600A6812680260814200D0086030BD67
:105170000460F9E7600000200648416B096829B126
:10518000416BC968C9684968816270474FF0FF3157
:10519000FAE700000C00002008484068401C4FF06F
:1051A000500080F3118804D0BFF34F8FBFF36F8F8F
:1051B000FEE7BFF34F8FBFF36F8FFEE7680000205D
:1051C0002DE9F0410546002701F07EF8324E3068A7
:1051D00008B9FFF709FF706905424ED1C5B308351C
:1051E00068070ED005F00700C0F108000544680705
:1051F00007D0502080F31188BFF34F8FBFF36F8F1C
:10520000FEE72DB37068854237D823481830014631
:105210000C6801E020460C466168A94202D2216870
:105220000029F7D131688C4227D0076821680160D6
:1052300060680837411B10290FD96019420708D050
:10524000502080F31188BFF34F8FBFF36F8FFEE7BD
:1052500013E041606560FFF769FF61687068401A9C
:105260007060B268904200D2B06070690143002063
:10527000C4E90001F068401CF06001F0F1F9780722
:1052800007D0502080F31188BFF34F8FBFF36F8F8B
:10529000FEE73846BDE8F0814800002010B5031F46
:1052A0004FF080741C601B1F21F001011960191F51
:1052B000044B0B6014390A60091F6FF00202443876
:1052C0000A6010BD9951000870B5054600200346DC
:1052D0001DE0EC5C072C3ED007DC072C13D2DFE886
:1052E00004F0191D222A2E323600142C48D006DC78
:1052F000082C34D0092C36D0132C04D13CE0202CBF
:1053000015D0222C33D06FF007005B1CDBB28B4230
:10531000DFD370BD166846F0010602E0166846F05D
:1053200002061660F1E7166846F00406F9E75668CB
:1053300046F001061EE0166846F00806F1E716681A
:1053400046F01006EDE7166846F02006E9E7166815
:1053500046F04006E5E7166846F08006E1E7166885
:1053600046F48076DDE7166846F40076D9E756689D
:1053700046F004065660C8E7166846F40026D0E7F3
:10538000166846F48016CCE7F8B5044600200D46B2
:105390000B46A61C01460090671C01223046FFF711
:1053A00084F840B930782B4601280FD0072200211D
:1053B0003846FFF77AF8002831D12046E61C2B4604
:1053C0000C220121FFF771F810B107E00322EEE78C
:1053D0002B46032200213046FFF767F800281ED134
:1053E000A1789DF800002B4661F3C7106178022276
:1053F00061F30610217861F303008DF80000E17875
:105400009DF8010061F301008DF80100694640201C
:10541000FEF7ECFE002802D12846FFF727F8F8BD7A
:1054200070B59CB006460024012502468DF8004068
:105430008DF8385002216846FEF75EFB32460121A6
:105440000420FEF732FE002817D10C208DF804004E
:1054500002218DF807408DF805108DF83C008DF87D
:1054600006508DF840408DF83D108DF841408DF884
:105470003E5032466846FEF7FAFB1CB070BD30B5B0
:1054800085B0054600200C460090019002900390E4
:105490000A460490042104A8FEF746FC20B39DF8B8
:1054A000110022466946FEF75AFC002816D19DF8E5
:1054B00012006946C01CC0B223461DF8002065F3E7
:1054C000C7120DF8002010223020FEF78FFE08B919
:1054D000012D05D0226B22F01002226305B030BDF1
:1054E000226B42F01002F8E76FF00700F6E7F0B524
:1054F000064685B000200F460090019002900546B8
:1055000003900A4604906C46042104A8FEF70CFCA4
:1055100080B39DF811003A466946FEF720FC00284A
:1055200037D19DF812003288400834F8101062F329
:105530000C0124F81010327962F34D3124F8101068
:10554000B27962F38E3124F81010327A62F3CF31DF
:1055500024F81010401C728834F8101062F30A010D
:1055600024F810109DF81210401CC1EB4000C0B28E
:105570006A4606E00FE063195619CB5C6D1C8B552B
:10558000EDB28542F7D33B46102269463020FEF744
:105590002DFE05B0F0BD6FF00700FAE7F8B505463F
:1055A0000C460B460B220121401DFEF77EFF002812
:1055B0003BD12346012269466B20FEF79AFC60B975
:1055C00029789DF80000234661F345108DF800000E
:1055D000012269466B20FEF709FE002825D12146ED
:1055E0002846FEF77AFF00281FD1264623460122CF
:1055F00069464420FEF77DFC040015D1A9799DF889
:105600000000334661F307106979012261F303005A
:105610008DF8000069464420FEF7E8FD0446326C30
:105620004FF47A70716890472046F8BD38B504464B
:1056300000200D468DF800000B46012269465920D6
:10564000FEF757FC00280BD19DF800002B4664F3B1
:1056500000008DF80000012269465920FEF7C6FDC2
:1056600038BD30B4C1EBC10410F8343000EBC400D5
:10567000072B29D008DC032B1CD0042B10D0052BC2
:1056800013D0062B08D11FE0082B1DD0132B20D0E0
:10569000142B23D01D2B12D030BC6FF007007047A5
:1056A00030BC1146001DFFF722BF30BC1146001D63
:1056B00000F066B930BC1146001D00F0F0B930BCF6
:1056C0001146001D00F0A3BA30BC1146001D00F0C9
:1056D00059BA30BC1146001D00F073BB30BC1146F6
:1056E000001D00F028BC38B5044600200D460B46CE
:1056F000014600900122A01CFEF7D7FE08BB2B46F6
:1057000003220021601CFEF7D0FED0B92B460122F7
:105710000021601DFEF7C9FE98B92B460D22062117
:105720002046FEF7C2FE60B92B4601220021E01C94
:10573000FEF7BBFE28B92B4604220021201DFEF7F0
:10574000B4FE002824D1A1789DF800002B4661F317
:10575000C7106179022261F38610617861F3051048
:10576000217861F303008DF80000E1789DF80100D5
:1057700061F3C300217961F302008DF801006946ED
:105780004220FEF733FD002802D12846FEF76EFEC8
:1057900038BD30B585B0054600200C46009001901C
:1057A000029003900A460490222104A8FEF7BCFA56
:1057B00010B39DF8110022466946FEF7D0FA002882
:1057C00014D19DF81200694623461DF8002065F3A8
:1057D00041020DF8002010223020FEF707FD08B925
:1057E000012D05D0626B22F00402626305B030BD6A
:1057F000626B42F00402F8E76FF00700F6E730B59D
:1058000085B0054600200C46009001900290039060
:105810000A460490092104A8FEF786FA20B39DF8F1
:10582000110022466946FEF79AFA002816D19DF823
:1058300012006946401DC0B223461DF8002065F3E2
:10584000C3020DF8002010223020FEF7CFFC08B96B
:10585000012D05D0226B22F40072226305B030BD09
:10586000226B42F40072F8E76FF00700F6E7F0B53C
:10587000064685B000200F46009001900290054634
:1058800003900A4604906C46092104A8FEF74CFADE
:10589000D0B39DF811003A466946FEF760FA002839
:1058A00030D19DF812003288400834F8101062F3AD
:1058B0000A0124F81010401C728834F8101062F3AA
:1058C0000A0124F81010401CC0B2B28834F810103D
:1058D00062F30A0124F810109DF81210401CC1EB6D
:1058E0004000C0B26A4605E063195619CB5C6D1CD6
:1058F0008B55EDB28542F7D33B46102269463020E6
:10590000FEF774FC05B0F0BDFFE76FF00700F9E7A4
:1059100030B585B0054600200C46009001900290FD
:1059200003900A460490052104A8FEF7FDF920B370
:105930009DF8110022466946FEF711FA002816D19B
:105940009DF812006946C01CC0B223461DF8002015
:1059500065F3C7120DF8002010223020FEF746FC38
:1059600008B9012D05D0226B22F02002226305B078
:1059700030BD226B42F02002F8E76FF00700F6E737
:10598000F0B5064685B000200F46009001900290C9
:10599000054603900A4604906C46052104A8FEF7CC
:1059A000C3F980B39DF811003A466946FEF7D7F96E
:1059B000002837D19DF812003288400834F81010C2
:1059C00062F30C0124F81010327962F34D3124F89F
:1059D0001010B27962F38E3124F81010327A62F32B
:1059E000CF3124F81010401C728834F8101062F384
:1059F0000A0124F810109DF81210401CC1EB400061
:105A0000C0B26A4606E00FE063195619CB5C6D1C04
:105A10008B55EDB28542F7D33B46102269463020C4
:105A2000FEF7E4FB05B0F0BD6FF00700FAE730B514
:105A300085B0054600200C4600900190029003902E
:105A40000A460490032104A8FEF76EF920B39DF8DE
:105A5000110022466946FEF782F9002816D19DF80A
:105A6000120069460A30C0B223461DF8002065F3D3
:105A700000020DF8002010223020FEF7B7FB08B915
:105A8000012D05D0226B22F00802226305B030BD43
:105A9000226B42F00802F8E76FF00700F6E7F0B576
:105AA000064685B000200F46009001900290044603
:105AB00003900A4604906D46032104A8FEF734F9CA
:105AC00028B39DF811003A466946FEF748F90028C8
:105AD0001BD19DF81200318840086A4625F8101045
